{
  "_format": "hh-sol-artifact-1",
  "contractName": "NumberGuessingGame",
  "sourceName": "contracts/NumberGuessingGame.sol",
  "abi": [
    {
      "inputs": [
        {
          "internalType": "address",
          "name": "vrfCoordinatorV2",
          "type": "address"
        },
        {
          "internalType": "bytes32",
          "name": "gasLane",
          "type": "bytes32"
        },
        {
          "internalType": "uint64",
          "name": "subscriptionId",
          "type": "uint64"
        }
      ],
      "stateMutability": "nonpayable",
      "type": "constructor"
    },
    {
      "inputs": [],
      "name": "NumberGuessingGame__NotEnoughEthEntered",
      "type": "error"
    },
    {
      "inputs": [],
      "name": "NumberGuessingGame__YOU_FAILED_TRY_AGAIN",
      "type": "error"
    },
    {
      "inputs": [
        {
          "internalType": "address",
          "name": "have",
          "type": "address"
        },
        {
          "internalType": "address",
          "name": "want",
          "type": "address"
        }
      ],
      "name": "OnlyCoordinatorCanFulfill",
      "type": "error"
    },
    {
      "inputs": [],
      "name": "enterGame",
      "outputs": [],
      "stateMutability": "payable",
      "type": "function"
    },
    {
      "inputs": [],
      "name": "getAllPlayersLength",
      "outputs": [
        {
          "internalType": "uint256",
          "name": "",
          "type": "uint256"
        }
      ],
      "stateMutability": "view",
      "type": "function"
    },
    {
      "inputs": [],
      "name": "getRecentWinner",
      "outputs": [
        {
          "internalType": "address",
          "name": "",
          "type": "address"
        }
      ],
      "stateMutability": "view",
      "type": "function"
    },
    {
      "inputs": [],
      "name": "getTheCorrectNumber",
      "outputs": [
        {
          "internalType": "uint256",
          "name": "",
          "type": "uint256"
        }
      ],
      "stateMutability": "view",
      "type": "function"
    },
    {
      "inputs": [
        {
          "internalType": "uint256",
          "name": "guessedNum",
          "type": "uint256"
        }
      ],
      "name": "guessTheNumber",
      "outputs": [],
      "stateMutability": "payable",
      "type": "function"
    },
    {
      "inputs": [
        {
          "internalType": "address",
          "name": "",
          "type": "address"
        }
      ],
      "name": "paid",
      "outputs": [
        {
          "internalType": "bool",
          "name": "",
          "type": "bool"
        }
      ],
      "stateMutability": "view",
      "type": "function"
    },
    {
      "inputs": [
        {
          "internalType": "uint256",
          "name": "",
          "type": "uint256"
        }
      ],
      "name": "players",
      "outputs": [
        {
          "internalType": "address",
          "name": "",
          "type": "address"
        }
      ],
      "stateMutability": "view",
      "type": "function"
    },
    {
      "inputs": [
        {
          "internalType": "uint256",
          "name": "requestId",
          "type": "uint256"
        },
        {
          "internalType": "uint256[]",
          "name": "randomWords",
          "type": "uint256[]"
        }
      ],
      "name": "rawFulfillRandomWords",
      "outputs": [],
      "stateMutability": "nonpayable",
      "type": "function"
    },
    {
      "inputs": [],
      "name": "s_entranceFee",
      "outputs": [
        {
          "internalType": "uint256",
          "name": "",
          "type": "uint256"
        }
      ],
      "stateMutability": "view",
      "type": "function"
    },
    {
      "inputs": [],
      "name": "s_recentWinner",
      "outputs": [
        {
          "internalType": "address",
          "name": "",
          "type": "address"
        }
      ],
      "stateMutability": "view",
      "type": "function"
    },
    {
      "inputs": [],
      "name": "setTheNumber",
      "outputs": [],
      "stateMutability": "nonpayable",
      "type": "function"
    }
  ],
  "bytecode": "0x610100604052662386f26fc100006001556002600660006101000a81548163ffffffff021916908363ffffffff1602179055503480156200003f57600080fd5b506040516200121c3803806200121c833981810160405281019062000065919062000226565b828073ffffffffffffffffffffffffffffffffffffffff1660808173ffffffffffffffffffffffffffffffffffffffff1681525050508273ffffffffffffffffffffffffffffffffffffffff1660a08173ffffffffffffffffffffffffffffffffffffffff16815250508160c081815250508067ffffffffffffffff1660e08167ffffffffffffffff1681525050336000806101000a81548173ffffffffffffffffffffffffffffffffffffffff021916908373ffffffffffffffffffffffffffffffffffffffff16021790555050505062000282565b600080fd5b600073ffffffffffffffffffffffffffffffffffffffff82169050919050565b60006200016e8262000141565b9050919050565b620001808162000161565b81146200018c57600080fd5b50565b600081519050620001a08162000175565b92915050565b6000819050919050565b620001bb81620001a6565b8114620001c757600080fd5b50565b600081519050620001db81620001b0565b92915050565b600067ffffffffffffffff82169050919050565b6200020081620001e1565b81146200020c57600080fd5b50565b6000815190506200022081620001f5565b92915050565b6000806000606084860312156200024257620002416200013c565b5b600062000252868287016200018f565b93505060206200026586828701620001ca565b925050604062000278868287016200020f565b9150509250925092565b60805160a05160c05160e051610f59620002c36000396000610564015260006105430152600061050701526000818161025a01526102ae0152610f596000f3fe60806040526004361061009c5760003560e01c8063758954eb11610064578063758954eb146101555780638638b0c61461016c578063a2eaacac14610197578063a340cf79146101c2578063d4f639d7146101ff578063f71d96cb1461021b5761009c565b80631fe543e3146100a15780632123f61f146100ca578063218bd577146100f557806327680ac8146100ff578063473f1ddc1461012a575b600080fd5b3480156100ad57600080fd5b506100c860048036038101906100c39190610afd565b610258565b005b3480156100d657600080fd5b506100df610318565b6040516100ec9190610b68565b60405180910390f35b6100fd61037b565b005b34801561010b57600080fd5b50610114610474565b6040516101219190610b68565b60405180910390f35b34801561013657600080fd5b5061013f610481565b60405161014c9190610bc4565b60405180910390f35b34801561016157600080fd5b5061016a6104ab565b005b34801561017857600080fd5b50610181610611565b60405161018e9190610bc4565b60405180910390f35b3480156101a357600080fd5b506101ac610637565b6040516101b99190610b68565b60405180910390f35b3480156101ce57600080fd5b506101e960048036038101906101e49190610c0b565b61063d565b6040516101f69190610c53565b60405180910390f35b61021960048036038101906102149190610c6e565b61065d565b005b34801561022757600080fd5b50610242600480360381019061023d9190610c6e565b61083c565b60405161024f9190610bc4565b60405180910390f35b7f000000000000000000000000000000000000000000000000000000000000000073ffffffffffffffffffffffffffffffffffffffff163373ffffffffffffffffffffffffffffffffffffffff161461030a57337f00000000000000000000000000000000000000000000000000000000000000006040517f1cf993f4000000000000000000000000000000000000000000000000000000008152600401610301929190610c9b565b60405180910390fd5b610314828261087b565b5050565b60008060009054906101000a900473ffffffffffffffffffffffffffffffffffffffff1673ffffffffffffffffffffffffffffffffffffffff163373ffffffffffffffffffffffffffffffffffffffff161461037357600080fd5b600354905090565b6001543410156103b7576040517f6c3d754a00000000000000000000000000000000000000000000000000000000815260040160405180910390fd5b6001600560003373ffffffffffffffffffffffffffffffffffffffff1673ffffffffffffffffffffffffffffffffffffffff16815260200190815260200160002060006101000a81548160ff0219169083151502179055506002339080600181540180825580915050600190039060005260206000200160009091909190916101000a81548173ffffffffffffffffffffffffffffffffffffffff021916908373ffffffffffffffffffffffffffffffffffffffff160217905550565b6000600280549050905090565b6000600460009054906101000a900473ffffffffffffffffffffffffffffffffffffffff16905090565b60008054906101000a900473ffffffffffffffffffffffffffffffffffffffff1673ffffffffffffffffffffffffffffffffffffffff163373ffffffffffffffffffffffffffffffffffffffff161461050357600080fd5b60007f000000000000000000000000000000000000000000000000000000000000000073ffffffffffffffffffffffffffffffffffffffff16635d3b1d307f00000000000000000000000000000000000000000000000000000000000000007f00000000000000000000000000000000000000000000000000000000000000006003600660009054906101000a900463ffffffff1660016040518663ffffffff1660e01b81526004016105ba959493929190610d3c565b602060405180830381600087803b1580156105d457600080fd5b505af11580156105e8573d6000803e3d6000fd5b505050506040513d601f19601f8201168201806040525081019061060c9190610da4565b905050565b600460009054906101000a900473ffffffffffffffffffffffffffffffffffffffff1681565b60015481565b60056020528060005260406000206000915054906101000a900460ff1681565b600560003373ffffffffffffffffffffffffffffffffffffffff1673ffffffffffffffffffffffffffffffffffffffff16815260200190815260200160002060009054906101000a900460ff166106e9576040517f08c379a00000000000000000000000000000000000000000000000000000000081526004016106e090610e2e565b60405180910390fd5b6003548114156108395760003373ffffffffffffffffffffffffffffffffffffffff164760405161071990610e7f565b60006040518083038185875af1925050503d8060008114610756576040519150601f19603f3d011682016040523d82523d6000602084013e61075b565b606091505b5050905080610796576040517fd3c9c2e800000000000000000000000000000000000000000000000000000000815260040160405180910390fd5b33600460006101000a81548173ffffffffffffffffffffffffffffffffffffffff021916908373ffffffffffffffffffffffffffffffffffffffff160217905550600067ffffffffffffffff8111156107f2576107f16109ba565b5b6040519080825280602002602001820160405280156108205781602001602082028036833780820191505090505b50600290805190602001906108369291906108b3565b50505b50565b6002818154811061084c57600080fd5b906000526020600020016000915054906101000a900473ffffffffffffffffffffffffffffffffffffffff1681565b6000600a8260008151811061089357610892610e94565b5b60200260200101516108a59190610ef2565b905080600381905550505050565b82805482825590600052602060002090810192821561092c579160200282015b8281111561092b5782518260006101000a81548173ffffffffffffffffffffffffffffffffffffffff021916908373ffffffffffffffffffffffffffffffffffffffff160217905550916020019190600101906108d3565b5b509050610939919061093d565b5090565b5b8082111561095657600081600090555060010161093e565b5090565b6000604051905090565b600080fd5b600080fd5b6000819050919050565b6109818161096e565b811461098c57600080fd5b50565b60008135905061099e81610978565b92915050565b600080fd5b6000601f19601f8301169050919050565b7f4e487b7100000000000000000000000000000000000000000000000000000000600052604160045260246000fd5b6109f2826109a9565b810181811067ffffffffffffffff82111715610a1157610a106109ba565b5b80604052505050565b6000610a2461095a565b9050610a3082826109e9565b919050565b600067ffffffffffffffff821115610a5057610a4f6109ba565b5b602082029050602081019050919050565b600080fd5b6000610a79610a7484610a35565b610a1a565b90508083825260208201905060208402830185811115610a9c57610a9b610a61565b5b835b81811015610ac55780610ab1888261098f565b845260208401935050602081019050610a9e565b5050509392505050565b600082601f830112610ae457610ae36109a4565b5b8135610af4848260208601610a66565b91505092915050565b60008060408385031215610b1457610b13610964565b5b6000610b228582860161098f565b925050602083013567ffffffffffffffff811115610b4357610b42610969565b5b610b4f85828601610acf565b9150509250929050565b610b628161096e565b82525050565b6000602082019050610b7d6000830184610b59565b92915050565b600073ffffffffffffffffffffffffffffffffffffffff82169050919050565b6000610bae82610b83565b9050919050565b610bbe81610ba3565b82525050565b6000602082019050610bd96000830184610bb5565b92915050565b610be881610ba3565b8114610bf357600080fd5b50565b600081359050610c0581610bdf565b92915050565b600060208284031215610c2157610c20610964565b5b6000610c2f84828501610bf6565b91505092915050565b60008115159050919050565b610c4d81610c38565b82525050565b6000602082019050610c686000830184610c44565b92915050565b600060208284031215610c8457610c83610964565b5b6000610c928482850161098f565b91505092915050565b6000604082019050610cb06000830185610bb5565b610cbd6020830184610bb5565b9392505050565b6000819050919050565b610cd781610cc4565b82525050565b600067ffffffffffffffff82169050919050565b610cfa81610cdd565b82525050565b600061ffff82169050919050565b610d1781610d00565b82525050565b600063ffffffff82169050919050565b610d3681610d1d565b82525050565b600060a082019050610d516000830188610cce565b610d5e6020830187610cf1565b610d6b6040830186610d0e565b610d786060830185610d2d565b610d856080830184610d2d565b9695505050505050565b600081519050610d9e81610978565b92915050565b600060208284031215610dba57610db9610964565b5b6000610dc884828501610d8f565b91505092915050565b600082825260208201905092915050565b7f506c732070617920746f20656e746572207468652067616d6500000000000000600082015250565b6000610e18601983610dd1565b9150610e2382610de2565b602082019050919050565b60006020820190508181036000830152610e4781610e0b565b9050919050565b600081905092915050565b50565b6000610e69600083610e4e565b9150610e7482610e59565b600082019050919050565b6000610e8a82610e5c565b9150819050919050565b7f4e487b7100000000000000000000000000000000000000000000000000000000600052603260045260246000fd5b7f4e487b7100000000000000000000000000000000000000000000000000000000600052601260045260246000fd5b6000610efd8261096e565b9150610f088361096e565b925082610f1857610f17610ec3565b5b82820690509291505056fea26469706673582212209a540aa3977bd4e85e47e82b9ea2c1244009a64c9f891eb7e08e89e9c000f98664736f6c63430008090033",
  "linkReferences": {},
  "deployedLinkReferences": {}
}