{
  "address": "0x161c012cA94333c7d6E86E49507ad0021aB59B9d",
  "abi": [
    {
      "inputs": [
        {
          "internalType": "address",
          "name": "vrfCoordinatorV2",
          "type": "address"
        },
        {
          "internalType": "uint256",
          "name": "entranceFee",
          "type": "uint256"
        },
        {
          "internalType": "bytes32",
          "name": "gasLane",
          "type": "bytes32"
        },
        {
          "internalType": "uint64",
          "name": "subcriptionId",
          "type": "uint64"
        }
      ],
      "stateMutability": "nonpayable",
      "type": "constructor"
    },
    {
      "inputs": [],
      "name": "NumberGuessingGame__NotEngoughEthEntered",
      "type": "error"
    },
    {
      "inputs": [],
      "name": "NumberGuessingGame__YOUFAILED",
      "type": "error"
    },
    {
      "inputs": [
        {
          "internalType": "address",
          "name": "have",
          "type": "address"
        },
        {
          "internalType": "address",
          "name": "want",
          "type": "address"
        }
      ],
      "name": "OnlyCoordinatorCanFulfill",
      "type": "error"
    },
    {
      "anonymous": false,
      "inputs": [
        {
          "indexed": true,
          "internalType": "uint256",
          "name": "requestId",
          "type": "uint256"
        }
      ],
      "name": "RequestId",
      "type": "event"
    },
    {
      "anonymous": false,
      "inputs": [
        {
          "indexed": true,
          "internalType": "address",
          "name": "winner",
          "type": "address"
        }
      ],
      "name": "Winner",
      "type": "event"
    },
    {
      "inputs": [],
      "name": "enterGame",
      "outputs": [],
      "stateMutability": "payable",
      "type": "function"
    },
    {
      "inputs": [],
      "name": "getEntranceFee",
      "outputs": [
        {
          "internalType": "uint256",
          "name": "",
          "type": "uint256"
        }
      ],
      "stateMutability": "view",
      "type": "function"
    },
    {
      "inputs": [],
      "name": "getRecentWinner",
      "outputs": [
        {
          "internalType": "address",
          "name": "",
          "type": "address"
        }
      ],
      "stateMutability": "view",
      "type": "function"
    },
    {
      "inputs": [
        {
          "internalType": "uint256",
          "name": "num",
          "type": "uint256"
        }
      ],
      "name": "guessTheNumber",
      "outputs": [],
      "stateMutability": "payable",
      "type": "function"
    },
    {
      "inputs": [
        {
          "internalType": "uint256",
          "name": "requestId",
          "type": "uint256"
        },
        {
          "internalType": "uint256[]",
          "name": "randomWords",
          "type": "uint256[]"
        }
      ],
      "name": "rawFulfillRandomWords",
      "outputs": [],
      "stateMutability": "nonpayable",
      "type": "function"
    },
    {
      "inputs": [],
      "name": "requestRandomNumber",
      "outputs": [],
      "stateMutability": "nonpayable",
      "type": "function"
    },
    {
      "inputs": [],
      "name": "totalNumberOfPlayers",
      "outputs": [
        {
          "internalType": "uint256",
          "name": "",
          "type": "uint256"
        }
      ],
      "stateMutability": "view",
      "type": "function"
    }
  ],
  "transactionHash": "0x78f804646fc0ed29d99fb4b51c1492570e6c60d886851a2ed6ead3e3ccc378ae",
  "args": [
    "0x6168499c0cFfCaCD319c818142124B7A15E857ab",
    "10000000000000000",
    "0xd89b2bf150e3b9e13446986e571fb9cab24b13cea0a43ea20a6049a85cc807cc",
    "10327"
  ],
  "numDeployments": 1,
  "solcInputHash": "349072d566870b3f0de73b84f497b77e",
  "bytecode": "0x6101206040523480156200001257600080fd5b506040516200113e3803806200113e83398181016040528101906200003891906200023e565b838073ffffffffffffffffffffffffffffffffffffffff1660808173ffffffffffffffffffffffffffffffffffffffff1681525050508260a08181525050336000806101000a81548173ffffffffffffffffffffffffffffffffffffffff021916908373ffffffffffffffffffffffffffffffffffffffff1602179055508373ffffffffffffffffffffffffffffffffffffffff166101008173ffffffffffffffffffffffffffffffffffffffff16815250508160c081815250508067ffffffffffffffff1660e08167ffffffffffffffff168152505050505050620002b0565b600080fd5b600073ffffffffffffffffffffffffffffffffffffffff82169050919050565b60006200014b826200011e565b9050919050565b6200015d816200013e565b81146200016957600080fd5b50565b6000815190506200017d8162000152565b92915050565b6000819050919050565b620001988162000183565b8114620001a457600080fd5b50565b600081519050620001b8816200018d565b92915050565b6000819050919050565b620001d381620001be565b8114620001df57600080fd5b50565b600081519050620001f381620001c8565b92915050565b600067ffffffffffffffff82169050919050565b6200021881620001f9565b81146200022457600080fd5b50565b60008151905062000238816200020d565b92915050565b600080600080608085870312156200025b576200025a62000119565b5b60006200026b878288016200016c565b94505060206200027e87828801620001a7565b93505060406200029187828801620001e2565b9250506060620002a48782880162000227565b91505092959194509250565b60805160a05160c05160e05161010051610e3b6200030360003960006104240152600061048101526000610460015260008181610160015261024601526000818161018601526101da0152610e3b6000f3fe6080604052600436106100705760003560e01c806339db03731161004e57806339db0373146100d3578063473f1ddc146100fe5780638678a7b214610129578063d4f639d71461014057610070565b806309bc33a7146100755780631fe543e3146100a0578063218bd577146100c9575b600080fd5b34801561008157600080fd5b5061008a61015c565b60405161009791906108be565b60405180910390f35b3480156100ac57600080fd5b506100c760048036038101906100c29190610a72565b610184565b005b6100d1610244565b005b3480156100df57600080fd5b506100e861035b565b6040516100f591906108be565b60405180910390f35b34801561010a57600080fd5b50610113610368565b6040516101209190610b0f565b60405180910390f35b34801561013557600080fd5b5061013e610392565b005b61015a60048036038101906101559190610b2a565b61054c565b005b60007f0000000000000000000000000000000000000000000000000000000000000000905090565b7f000000000000000000000000000000000000000000000000000000000000000073ffffffffffffffffffffffffffffffffffffffff163373ffffffffffffffffffffffffffffffffffffffff161461023657337f00000000000000000000000000000000000000000000000000000000000000006040517f1cf993f400000000000000000000000000000000000000000000000000000000815260040161022d929190610b57565b60405180910390fd5b6102408282610738565b5050565b7f000000000000000000000000000000000000000000000000000000000000000034101561029e576040517f165c44e500000000000000000000000000000000000000000000000000000000815260040160405180910390fd5b6001600260003373ffffffffffffffffffffffffffffffffffffffff1673ffffffffffffffffffffffffffffffffffffffff16815260200190815260200160002060006101000a81548160ff0219169083151502179055506001339080600181540180825580915050600190039060005260206000200160009091909190916101000a81548173ffffffffffffffffffffffffffffffffffffffff021916908373ffffffffffffffffffffffffffffffffffffffff160217905550565b6000600180549050905090565b6000600460009054906101000a900473ffffffffffffffffffffffffffffffffffffffff16905090565b60008054906101000a900473ffffffffffffffffffffffffffffffffffffffff1673ffffffffffffffffffffffffffffffffffffffff163373ffffffffffffffffffffffffffffffffffffffff1614610420576040517f08c379a000000000000000000000000000000000000000000000000000000000815260040161041790610c03565b60405180910390fd5b60007f000000000000000000000000000000000000000000000000000000000000000073ffffffffffffffffffffffffffffffffffffffff16635d3b1d307f00000000000000000000000000000000000000000000000000000000000000007f00000000000000000000000000000000000000000000000000000000000000006003620186a060016040518663ffffffff1660e01b81526004016104c8959493929190610c9b565b602060405180830381600087803b1580156104e257600080fd5b505af11580156104f6573d6000803e3d6000fd5b505050506040513d601f19601f8201168201806040525081019061051a9190610d03565b9050807f3554fe1ee254b86916f1f06dddd374934dd5c2bfe18b0150f0f124268baaf27560405160405180910390a250565b600260003373ffffffffffffffffffffffffffffffffffffffff1673ffffffffffffffffffffffffffffffffffffffff16815260200190815260200160002060009054906101000a900460ff166105a257600080fd5b8060035414156106925760003373ffffffffffffffffffffffffffffffffffffffff16476040516105d290610d61565b60006040518083038185875af1925050503d806000811461060f576040519150601f19603f3d011682016040523d82523d6000602084013e610614565b606091505b5050905033600460006101000a81548173ffffffffffffffffffffffffffffffffffffffff021916908373ffffffffffffffffffffffffffffffffffffffff16021790555080610690576040517fa6b0206400000000000000000000000000000000000000000000000000000000815260040160405180910390fd5b505b3373ffffffffffffffffffffffffffffffffffffffff167f745c90b656b4aafe296c8ca35aeacfe56cb96c90e1d320e5da643fff1051b6c060405160405180910390a2600067ffffffffffffffff8111156106f0576106ef61092f565b5b60405190808252806020026020018201604052801561071e5781602001602082028036833780820191505090505b50600190805190602001906107349291906107fe565b5050565b60008054906101000a900473ffffffffffffffffffffffffffffffffffffffff1673ffffffffffffffffffffffffffffffffffffffff163373ffffffffffffffffffffffffffffffffffffffff16146107c6576040517f08c379a00000000000000000000000000000000000000000000000000000000081526004016107bd90610c03565b60405180910390fd5b60006005826000815181106107de576107dd610d76565b5b60200260200101516107f09190610dd4565b905080600381905550505050565b828054828255906000526020600020908101928215610877579160200282015b828111156108765782518260006101000a81548173ffffffffffffffffffffffffffffffffffffffff021916908373ffffffffffffffffffffffffffffffffffffffff1602179055509160200191906001019061081e565b5b5090506108849190610888565b5090565b5b808211156108a1576000816000905550600101610889565b5090565b6000819050919050565b6108b8816108a5565b82525050565b60006020820190506108d360008301846108af565b92915050565b6000604051905090565b600080fd5b600080fd5b6108f6816108a5565b811461090157600080fd5b50565b600081359050610913816108ed565b92915050565b600080fd5b6000601f19601f8301169050919050565b7f4e487b7100000000000000000000000000000000000000000000000000000000600052604160045260246000fd5b6109678261091e565b810181811067ffffffffffffffff821117156109865761098561092f565b5b80604052505050565b60006109996108d9565b90506109a5828261095e565b919050565b600067ffffffffffffffff8211156109c5576109c461092f565b5b602082029050602081019050919050565b600080fd5b60006109ee6109e9846109aa565b61098f565b90508083825260208201905060208402830185811115610a1157610a106109d6565b5b835b81811015610a3a5780610a268882610904565b845260208401935050602081019050610a13565b5050509392505050565b600082601f830112610a5957610a58610919565b5b8135610a698482602086016109db565b91505092915050565b60008060408385031215610a8957610a886108e3565b5b6000610a9785828601610904565b925050602083013567ffffffffffffffff811115610ab857610ab76108e8565b5b610ac485828601610a44565b9150509250929050565b600073ffffffffffffffffffffffffffffffffffffffff82169050919050565b6000610af982610ace565b9050919050565b610b0981610aee565b82525050565b6000602082019050610b246000830184610b00565b92915050565b600060208284031215610b4057610b3f6108e3565b5b6000610b4e84828501610904565b91505092915050565b6000604082019050610b6c6000830185610b00565b610b796020830184610b00565b9392505050565b600082825260208201905092915050565b7f596f7520617265206e6f7420616c6c6f77656420746f2063616c6c207468697360008201527f2066756e6374696f6e0000000000000000000000000000000000000000000000602082015250565b6000610bed602983610b80565b9150610bf882610b91565b604082019050919050565b60006020820190508181036000830152610c1c81610be0565b9050919050565b6000819050919050565b610c3681610c23565b82525050565b600067ffffffffffffffff82169050919050565b610c5981610c3c565b82525050565b600061ffff82169050919050565b610c7681610c5f565b82525050565b600063ffffffff82169050919050565b610c9581610c7c565b82525050565b600060a082019050610cb06000830188610c2d565b610cbd6020830187610c50565b610cca6040830186610c6d565b610cd76060830185610c8c565b610ce46080830184610c8c565b9695505050505050565b600081519050610cfd816108ed565b92915050565b600060208284031215610d1957610d186108e3565b5b6000610d2784828501610cee565b91505092915050565b600081905092915050565b50565b6000610d4b600083610d30565b9150610d5682610d3b565b600082019050919050565b6000610d6c82610d3e565b9150819050919050565b7f4e487b7100000000000000000000000000000000000000000000000000000000600052603260045260246000fd5b7f4e487b7100000000000000000000000000000000000000000000000000000000600052601260045260246000fd5b6000610ddf826108a5565b9150610dea836108a5565b925082610dfa57610df9610da5565b5b82820690509291505056fea264697066735822122097305d0d6f2d56e21fd307da50bda587364bb81e0faf026904100268fe6c0e0364736f6c63430008090033",
  "devdoc": {
    "kind": "dev",
    "methods": {},
    "version": 1
  },
  "userdoc": {
    "kind": "user",
    "methods": {},
    "version": 1
  },
  "storageLayout": {
    "storage": [
      {
        "astId": 1147,
        "contract": "contracts/NumberGuessingGame.sol:NumberGuessingGame",
        "label": "s_manager",
        "offset": 0,
        "slot": "0",
        "type": "t_address"
      },
      {
        "astId": 1150,
        "contract": "contracts/NumberGuessingGame.sol:NumberGuessingGame",
        "label": "s_players",
        "offset": 0,
        "slot": "1",
        "type": "t_array(t_address_payable)dyn_storage"
      },
      {
        "astId": 1154,
        "contract": "contracts/NumberGuessingGame.sol:NumberGuessingGame",
        "label": "paid",
        "offset": 0,
        "slot": "2",
        "type": "t_mapping(t_address,t_bool)"
      },
      {
        "astId": 1169,
        "contract": "contracts/NumberGuessingGame.sol:NumberGuessingGame",
        "label": "s_correctNumber",
        "offset": 0,
        "slot": "3",
        "type": "t_uint256"
      },
      {
        "astId": 1171,
        "contract": "contracts/NumberGuessingGame.sol:NumberGuessingGame",
        "label": "s_winner",
        "offset": 0,
        "slot": "4",
        "type": "t_address"
      }
    ],
    "types": {
      "t_address": {
        "encoding": "inplace",
        "label": "address",
        "numberOfBytes": "20"
      },
      "t_address_payable": {
        "encoding": "inplace",
        "label": "address payable",
        "numberOfBytes": "20"
      },
      "t_array(t_address_payable)dyn_storage": {
        "base": "t_address_payable",
        "encoding": "dynamic_array",
        "label": "address payable[]",
        "numberOfBytes": "32"
      },
      "t_bool": {
        "encoding": "inplace",
        "label": "bool",
        "numberOfBytes": "1"
      },
      "t_mapping(t_address,t_bool)": {
        "encoding": "mapping",
        "key": "t_address",
        "label": "mapping(address => bool)",
        "numberOfBytes": "32",
        "value": "t_bool"
      },
      "t_uint256": {
        "encoding": "inplace",
        "label": "uint256",
        "numberOfBytes": "32"
      }
    }
  }
}