{
  "address": "0x93021F080664fFB32364c019A2D56816eA31BCCc",
  "abi": [
    {
      "inputs": [],
      "stateMutability": "nonpayable",
      "type": "constructor"
    },
    {
      "inputs": [],
      "name": "NumberGuessingGame__NotEngoughEthEntered",
      "type": "error"
    },
    {
      "inputs": [],
      "name": "NumberGuessingGame__YOUFAILED",
      "type": "error"
    },
    {
      "inputs": [],
      "name": "enterGame",
      "outputs": [],
      "stateMutability": "payable",
      "type": "function"
    },
    {
      "inputs": [],
      "name": "getCorrectNumber",
      "outputs": [
        {
          "internalType": "uint256",
          "name": "",
          "type": "uint256"
        }
      ],
      "stateMutability": "view",
      "type": "function"
    },
    {
      "inputs": [],
      "name": "getEntranceFee",
      "outputs": [
        {
          "internalType": "uint256",
          "name": "",
          "type": "uint256"
        }
      ],
      "stateMutability": "view",
      "type": "function"
    },
    {
      "inputs": [],
      "name": "getRecentWinner",
      "outputs": [
        {
          "internalType": "address",
          "name": "",
          "type": "address"
        }
      ],
      "stateMutability": "view",
      "type": "function"
    },
    {
      "inputs": [
        {
          "internalType": "uint256",
          "name": "num",
          "type": "uint256"
        }
      ],
      "name": "guessTheNumber",
      "outputs": [],
      "stateMutability": "payable",
      "type": "function"
    },
    {
      "inputs": [],
      "name": "totalNumberOfPlayers",
      "outputs": [
        {
          "internalType": "uint256",
          "name": "",
          "type": "uint256"
        }
      ],
      "stateMutability": "view",
      "type": "function"
    }
  ],
  "transactionHash": "0x7041b5ec5ec666bff2d4e9b2c70c1a6d3c01b0b1b733075fb8bc3c21e5f49808",
  "args": [],
  "numDeployments": 5,
  "solcInputHash": "58c82eea508b11c034395b56e4c407a8",
  "bytecode": "0x6080604052662386f26fc10000600055600560045534801561002057600080fd5b5033600160006101000a81548173ffffffffffffffffffffffffffffffffffffffff021916908373ffffffffffffffffffffffffffffffffffffffff16021790555061078b806100716000396000f3fe6080604052600436106100555760003560e01c806309bc33a71461005a578063218bd5771461008557806339db03731461008f578063473f1ddc146100ba5780635157e439146100e5578063d4f639d714610110575b600080fd5b34801561006657600080fd5b5061006f61012c565b60405161007c9190610568565b60405180910390f35b61008d610135565b005b34801561009b57600080fd5b506100a461022e565b6040516100b19190610568565b60405180910390f35b3480156100c657600080fd5b506100cf61023b565b6040516100dc91906105c4565b60405180910390f35b3480156100f157600080fd5b506100fa610265565b6040516101079190610568565b60405180910390f35b61012a60048036038101906101259190610610565b6102ff565b005b60008054905090565b600054341015610171576040517f165c44e500000000000000000000000000000000000000000000000000000000815260040160405180910390fd5b6001600360003373ffffffffffffffffffffffffffffffffffffffff1673ffffffffffffffffffffffffffffffffffffffff16815260200190815260200160002060006101000a81548160ff0219169083151502179055506002339080600181540180825580915050600190039060005260206000200160009091909190916101000a81548173ffffffffffffffffffffffffffffffffffffffff021916908373ffffffffffffffffffffffffffffffffffffffff160217905550565b6000600280549050905090565b6000600560009054906101000a900473ffffffffffffffffffffffffffffffffffffffff16905090565b6000600160009054906101000a900473ffffffffffffffffffffffffffffffffffffffff1673ffffffffffffffffffffffffffffffffffffffff163373ffffffffffffffffffffffffffffffffffffffff16146102f7576040517f08c379a00000000000000000000000000000000000000000000000000000000081526004016102ee906106c0565b60405180910390fd5b600454905090565b600360003373ffffffffffffffffffffffffffffffffffffffff1673ffffffffffffffffffffffffffffffffffffffff16815260200190815260200160002060009054906101000a900460ff1661035557600080fd5b8060045414156104455760003373ffffffffffffffffffffffffffffffffffffffff164760405161038590610711565b60006040518083038185875af1925050503d80600081146103c2576040519150601f19603f3d011682016040523d82523d6000602084013e6103c7565b606091505b5050905033600560006101000a81548173ffffffffffffffffffffffffffffffffffffffff021916908373ffffffffffffffffffffffffffffffffffffffff16021790555080610443576040517fa6b0206400000000000000000000000000000000000000000000000000000000815260040160405180910390fd5b505b600067ffffffffffffffff8111156104605761045f610726565b5b60405190808252806020026020018201604052801561048e5781602001602082028036833780820191505090505b50600290805190602001906104a49291906104a8565b5050565b828054828255906000526020600020908101928215610521579160200282015b828111156105205782518260006101000a81548173ffffffffffffffffffffffffffffffffffffffff021916908373ffffffffffffffffffffffffffffffffffffffff160217905550916020019190600101906104c8565b5b50905061052e9190610532565b5090565b5b8082111561054b576000816000905550600101610533565b5090565b6000819050919050565b6105628161054f565b82525050565b600060208201905061057d6000830184610559565b92915050565b600073ffffffffffffffffffffffffffffffffffffffff82169050919050565b60006105ae82610583565b9050919050565b6105be816105a3565b82525050565b60006020820190506105d960008301846105b5565b92915050565b600080fd5b6105ed8161054f565b81146105f857600080fd5b50565b60008135905061060a816105e4565b92915050565b600060208284031215610626576106256105df565b5b6000610634848285016105fb565b91505092915050565b600082825260208201905092915050565b7f596f7520617265206e6f7420616c6c6f77656420746f2063616c6c207468697360008201527f2066756e6374696f6e0000000000000000000000000000000000000000000000602082015250565b60006106aa60298361063d565b91506106b58261064e565b604082019050919050565b600060208201905081810360008301526106d98161069d565b9050919050565b600081905092915050565b50565b60006106fb6000836106e0565b9150610706826106eb565b600082019050919050565b600061071c826106ee565b9150819050919050565b7f4e487b7100000000000000000000000000000000000000000000000000000000600052604160045260246000fdfea2646970667358221220d65a07c35a597568dd347b8a89ef5f94bae311578ecc5a6f97ecbd2d0bd3e98264736f6c63430008090033",
  "devdoc": {
    "kind": "dev",
    "methods": {},
    "version": 1
  },
  "userdoc": {
    "kind": "user",
    "methods": {},
    "version": 1
  },
  "storageLayout": {
    "storage": [
      {
        "astId": 10,
        "contract": "contracts/NumberGuessingGame.sol:NumberGuessingGame",
        "label": "s_entranceFee",
        "offset": 0,
        "slot": "0",
        "type": "t_uint256"
      },
      {
        "astId": 12,
        "contract": "contracts/NumberGuessingGame.sol:NumberGuessingGame",
        "label": "s_manager",
        "offset": 0,
        "slot": "1",
        "type": "t_address"
      },
      {
        "astId": 15,
        "contract": "contracts/NumberGuessingGame.sol:NumberGuessingGame",
        "label": "s_players",
        "offset": 0,
        "slot": "2",
        "type": "t_array(t_address_payable)dyn_storage"
      },
      {
        "astId": 19,
        "contract": "contracts/NumberGuessingGame.sol:NumberGuessingGame",
        "label": "paid",
        "offset": 0,
        "slot": "3",
        "type": "t_mapping(t_address,t_bool)"
      },
      {
        "astId": 22,
        "contract": "contracts/NumberGuessingGame.sol:NumberGuessingGame",
        "label": "s_correctNumber",
        "offset": 0,
        "slot": "4",
        "type": "t_uint256"
      },
      {
        "astId": 24,
        "contract": "contracts/NumberGuessingGame.sol:NumberGuessingGame",
        "label": "s_winner",
        "offset": 0,
        "slot": "5",
        "type": "t_address"
      }
    ],
    "types": {
      "t_address": {
        "encoding": "inplace",
        "label": "address",
        "numberOfBytes": "20"
      },
      "t_address_payable": {
        "encoding": "inplace",
        "label": "address payable",
        "numberOfBytes": "20"
      },
      "t_array(t_address_payable)dyn_storage": {
        "base": "t_address_payable",
        "encoding": "dynamic_array",
        "label": "address payable[]",
        "numberOfBytes": "32"
      },
      "t_bool": {
        "encoding": "inplace",
        "label": "bool",
        "numberOfBytes": "1"
      },
      "t_mapping(t_address,t_bool)": {
        "encoding": "mapping",
        "key": "t_address",
        "label": "mapping(address => bool)",
        "numberOfBytes": "32",
        "value": "t_bool"
      },
      "t_uint256": {
        "encoding": "inplace",
        "label": "uint256",
        "numberOfBytes": "32"
      }
    }
  }
}