{
  "address": "0x10a4E536DB301A5BF0946b6c3e87b0087182a6f8",
  "abi": [
    {
      "inputs": [
        {
          "internalType": "uint64",
          "name": "subscriptionId",
          "type": "uint64"
        }
      ],
      "stateMutability": "nonpayable",
      "type": "constructor"
    },
    {
      "inputs": [],
      "name": "NumberGuessingGame__NotEnoughEthEntered",
      "type": "error"
    },
    {
      "inputs": [],
      "name": "NumberGuessingGame__YOU_FAILED_TRY_AGAIN",
      "type": "error"
    },
    {
      "inputs": [
        {
          "internalType": "address",
          "name": "have",
          "type": "address"
        },
        {
          "internalType": "address",
          "name": "want",
          "type": "address"
        }
      ],
      "name": "OnlyCoordinatorCanFulfill",
      "type": "error"
    },
    {
      "anonymous": false,
      "inputs": [
        {
          "indexed": true,
          "internalType": "address",
          "name": "from",
          "type": "address"
        },
        {
          "indexed": true,
          "internalType": "address",
          "name": "to",
          "type": "address"
        }
      ],
      "name": "OwnershipTransferRequested",
      "type": "event"
    },
    {
      "anonymous": false,
      "inputs": [
        {
          "indexed": true,
          "internalType": "address",
          "name": "from",
          "type": "address"
        },
        {
          "indexed": true,
          "internalType": "address",
          "name": "to",
          "type": "address"
        }
      ],
      "name": "OwnershipTransferred",
      "type": "event"
    },
    {
      "anonymous": false,
      "inputs": [
        {
          "indexed": false,
          "internalType": "uint256",
          "name": "requestId",
          "type": "uint256"
        },
        {
          "indexed": false,
          "internalType": "uint256[]",
          "name": "randomWords",
          "type": "uint256[]"
        }
      ],
      "name": "RequestFulfilled",
      "type": "event"
    },
    {
      "anonymous": false,
      "inputs": [
        {
          "indexed": false,
          "internalType": "uint256",
          "name": "requestId",
          "type": "uint256"
        },
        {
          "indexed": false,
          "internalType": "uint32",
          "name": "numWords",
          "type": "uint32"
        }
      ],
      "name": "RequestSent",
      "type": "event"
    },
    {
      "inputs": [],
      "name": "acceptOwnership",
      "outputs": [],
      "stateMutability": "nonpayable",
      "type": "function"
    },
    {
      "inputs": [
        {
          "internalType": "uint256",
          "name": "",
          "type": "uint256"
        }
      ],
      "name": "correctNum",
      "outputs": [
        {
          "internalType": "uint256",
          "name": "",
          "type": "uint256"
        }
      ],
      "stateMutability": "view",
      "type": "function"
    },
    {
      "inputs": [],
      "name": "enterGame",
      "outputs": [],
      "stateMutability": "payable",
      "type": "function"
    },
    {
      "inputs": [],
      "name": "getCorrectNumber",
      "outputs": [
        {
          "internalType": "uint256",
          "name": "",
          "type": "uint256"
        }
      ],
      "stateMutability": "view",
      "type": "function"
    },
    {
      "inputs": [
        {
          "internalType": "uint256",
          "name": "_requestId",
          "type": "uint256"
        }
      ],
      "name": "getRequestStatus",
      "outputs": [
        {
          "internalType": "bool",
          "name": "fulfilled",
          "type": "bool"
        },
        {
          "internalType": "uint256[]",
          "name": "randomWords",
          "type": "uint256[]"
        }
      ],
      "stateMutability": "nonpayable",
      "type": "function"
    },
    {
      "inputs": [
        {
          "internalType": "uint256",
          "name": "guessedNum",
          "type": "uint256"
        }
      ],
      "name": "guessTheNumber",
      "outputs": [],
      "stateMutability": "payable",
      "type": "function"
    },
    {
      "inputs": [],
      "name": "lastRequestId",
      "outputs": [
        {
          "internalType": "uint256",
          "name": "",
          "type": "uint256"
        }
      ],
      "stateMutability": "view",
      "type": "function"
    },
    {
      "inputs": [],
      "name": "newNum",
      "outputs": [
        {
          "internalType": "uint256",
          "name": "",
          "type": "uint256"
        }
      ],
      "stateMutability": "view",
      "type": "function"
    },
    {
      "inputs": [],
      "name": "owner",
      "outputs": [
        {
          "internalType": "address",
          "name": "",
          "type": "address"
        }
      ],
      "stateMutability": "view",
      "type": "function"
    },
    {
      "inputs": [
        {
          "internalType": "address",
          "name": "",
          "type": "address"
        }
      ],
      "name": "paid",
      "outputs": [
        {
          "internalType": "bool",
          "name": "",
          "type": "bool"
        }
      ],
      "stateMutability": "view",
      "type": "function"
    },
    {
      "inputs": [
        {
          "internalType": "uint256",
          "name": "",
          "type": "uint256"
        }
      ],
      "name": "players",
      "outputs": [
        {
          "internalType": "address",
          "name": "",
          "type": "address"
        }
      ],
      "stateMutability": "view",
      "type": "function"
    },
    {
      "inputs": [
        {
          "internalType": "uint256",
          "name": "requestId",
          "type": "uint256"
        },
        {
          "internalType": "uint256[]",
          "name": "randomWords",
          "type": "uint256[]"
        }
      ],
      "name": "rawFulfillRandomWords",
      "outputs": [],
      "stateMutability": "nonpayable",
      "type": "function"
    },
    {
      "inputs": [
        {
          "internalType": "uint256",
          "name": "",
          "type": "uint256"
        }
      ],
      "name": "requestIds",
      "outputs": [
        {
          "internalType": "uint256",
          "name": "",
          "type": "uint256"
        }
      ],
      "stateMutability": "view",
      "type": "function"
    },
    {
      "inputs": [],
      "name": "requestRandomWords",
      "outputs": [
        {
          "internalType": "uint256",
          "name": "requestId",
          "type": "uint256"
        }
      ],
      "stateMutability": "nonpayable",
      "type": "function"
    },
    {
      "inputs": [],
      "name": "s_entranceFee",
      "outputs": [
        {
          "internalType": "uint256",
          "name": "",
          "type": "uint256"
        }
      ],
      "stateMutability": "view",
      "type": "function"
    },
    {
      "inputs": [],
      "name": "s_recentWinner",
      "outputs": [
        {
          "internalType": "address",
          "name": "",
          "type": "address"
        }
      ],
      "stateMutability": "view",
      "type": "function"
    },
    {
      "inputs": [
        {
          "internalType": "uint256",
          "name": "",
          "type": "uint256"
        }
      ],
      "name": "s_requests",
      "outputs": [
        {
          "internalType": "bool",
          "name": "fulfilled",
          "type": "bool"
        },
        {
          "internalType": "bool",
          "name": "exists",
          "type": "bool"
        }
      ],
      "stateMutability": "view",
      "type": "function"
    },
    {
      "inputs": [
        {
          "internalType": "address",
          "name": "to",
          "type": "address"
        }
      ],
      "name": "transferOwnership",
      "outputs": [],
      "stateMutability": "nonpayable",
      "type": "function"
    }
  ],
  "transactionHash": "0x99a805924f0f1b4e2de7afaaaa925b09e0350578506ee97ac3faa2e1b1e7d5c3",
  "args": [
    2673
  ],
  "numDeployments": 1,
  "solcInputHash": "ae467ea1819aa004b0c976eec54fba34",
  "bytecode": "0x60a0604052662386f26fc100006003557f79d3d8832d904592c0bf9818b621522c988bb8b0c05cdc3b15aea1b6e8db0c1560001b600e55620186a0600f60006101000a81548163ffffffff021916908363ffffffff1602179055506003600f60046101000a81548161ffff021916908361ffff1602179055506002600f60066101000a81548163ffffffff021916908363ffffffff160217905550348015620000a757600080fd5b50604051620020de380380620020de8339818101604052810190620000cd919062000417565b33806000732ca8e0c643bde4c2e08ab1fa0da3401adad7734d8073ffffffffffffffffffffffffffffffffffffffff1660808173ffffffffffffffffffffffffffffffffffffffff168152505050600073ffffffffffffffffffffffffffffffffffffffff168273ffffffffffffffffffffffffffffffffffffffff1614156200018e576040517f08c379a00000000000000000000000000000000000000000000000000000000081526004016200018590620004aa565b60405180910390fd5b816000806101000a81548173ffffffffffffffffffffffffffffffffffffffff021916908373ffffffffffffffffffffffffffffffffffffffff160217905550600073ffffffffffffffffffffffffffffffffffffffff168173ffffffffffffffffffffffffffffffffffffffff1614620002155762000214816200029d60201b60201c565b5b505050732ca8e0c643bde4c2e08ab1fa0da3401adad7734d600960006101000a81548173ffffffffffffffffffffffffffffffffffffffff021916908373ffffffffffffffffffffffffffffffffffffffff16021790555080600960146101000a81548167ffffffffffffffff021916908367ffffffffffffffff160217905550506200053e565b3373ffffffffffffffffffffffffffffffffffffffff168173ffffffffffffffffffffffffffffffffffffffff1614156200030f576040517f08c379a000000000000000000000000000000000000000000000000000000000815260040162000306906200051c565b60405180910390fd5b80600160006101000a81548173ffffffffffffffffffffffffffffffffffffffff021916908373ffffffffffffffffffffffffffffffffffffffff1602179055508073ffffffffffffffffffffffffffffffffffffffff1660008054906101000a900473ffffffffffffffffffffffffffffffffffffffff1673ffffffffffffffffffffffffffffffffffffffff167fed8889f560326eb138920d842192f0eb3dd22b4f139c87a2c57538e05bae127860405160405180910390a350565b600080fd5b600067ffffffffffffffff82169050919050565b620003f181620003d2565b8114620003fd57600080fd5b50565b6000815190506200041181620003e6565b92915050565b60006020828403121562000430576200042f620003cd565b5b6000620004408482850162000400565b91505092915050565b600082825260208201905092915050565b7f43616e6e6f7420736574206f776e657220746f207a65726f0000000000000000600082015250565b60006200049260188362000449565b91506200049f826200045a565b602082019050919050565b60006020820190508181036000830152620004c58162000483565b9050919050565b7f43616e6e6f74207472616e7366657220746f2073656c66000000000000000000600082015250565b60006200050460178362000449565b91506200051182620004cc565b602082019050919050565b600060208201905081810360008301526200053781620004f5565b9050919050565b608051611b7d620005616000396000818161043c01526104900152611b7d6000f3fe6080604052600436106101095760003560e01c8063a340cf7911610095578063e0c8628911610064578063e0c8628914610353578063e29710fe1461037e578063f2fde38b146103a9578063f71d96cb146103d2578063fc2a88c31461040f57610109565b8063a340cf791461027f578063d2a2b579146102bc578063d4f639d7146102f9578063d8a4676f1461031557610109565b80638638b0c6116100dc5780638638b0c6146101835780638796ba8c146101ae5780638da5cb5b146101eb578063a168fa8914610216578063a2eaacac1461025457610109565b80631fe543e31461010e578063218bd577146101375780635157e4391461014157806379ba50971461016c575b600080fd5b34801561011a57600080fd5b5061013560048036038101906101309190611401565b61043a565b005b61013f6104fa565b005b34801561014d57600080fd5b506101566105f3565b604051610163919061146c565b60405180910390f35b34801561017857600080fd5b50610181610605565b005b34801561018f57600080fd5b5061019861079a565b6040516101a591906114c8565b60405180910390f35b3480156101ba57600080fd5b506101d560048036038101906101d091906114e3565b6107c0565b6040516101e2919061146c565b60405180910390f35b3480156101f757600080fd5b506102006107e4565b60405161020d91906114c8565b60405180910390f35b34801561022257600080fd5b5061023d600480360381019061023891906114e3565b61080d565b60405161024b92919061152b565b60405180910390f35b34801561026057600080fd5b5061026961084b565b604051610276919061146c565b60405180910390f35b34801561028b57600080fd5b506102a660048036038101906102a19190611580565b610851565b6040516102b391906115ad565b60405180910390f35b3480156102c857600080fd5b506102e360048036038101906102de91906114e3565b610871565b6040516102f0919061146c565b60405180910390f35b610313600480360381019061030e91906114e3565b610895565b005b34801561032157600080fd5b5061033c600480360381019061033791906114e3565b610a74565b60405161034a929190611686565b60405180910390f35b34801561035f57600080fd5b50610368610bec565b604051610375919061146c565b60405180910390f35b34801561038a57600080fd5b50610393610e54565b6040516103a0919061146c565b60405180910390f35b3480156103b557600080fd5b506103d060048036038101906103cb9190611580565b610e5a565b005b3480156103de57600080fd5b506103f960048036038101906103f491906114e3565b610e6e565b60405161040691906114c8565b60405180910390f35b34801561041b57600080fd5b50610424610ead565b604051610431919061146c565b60405180910390f35b7f000000000000000000000000000000000000000000000000000000000000000073ffffffffffffffffffffffffffffffffffffffff163373ffffffffffffffffffffffffffffffffffffffff16146104ec57337f00000000000000000000000000000000000000000000000000000000000000006040517f1cf993f40000000000000000000000000000000000000000000000000000000081526004016104e39291906116b6565b60405180910390fd5b6104f68282610eb3565b5050565b600354341015610536576040517f6c3d754a00000000000000000000000000000000000000000000000000000000815260040160405180910390fd5b6001600760003373ffffffffffffffffffffffffffffffffffffffff1673ffffffffffffffffffffffffffffffffffffffff16815260200190815260200160002060006101000a81548160ff0219169083151502179055506004339080600181540180825580915050600190039060005260206000200160009091909190916101000a81548173ffffffffffffffffffffffffffffffffffffffff021916908373ffffffffffffffffffffffffffffffffffffffff160217905550565b60006105fd610fad565b600d54905090565b600160009054906101000a900473ffffffffffffffffffffffffffffffffffffffff1673ffffffffffffffffffffffffffffffffffffffff163373ffffffffffffffffffffffffffffffffffffffff1614610695576040517f08c379a000000000000000000000000000000000000000000000000000000000815260040161068c9061173c565b60405180910390fd5b60008060009054906101000a900473ffffffffffffffffffffffffffffffffffffffff169050336000806101000a81548173ffffffffffffffffffffffffffffffffffffffff021916908373ffffffffffffffffffffffffffffffffffffffff1602179055506000600160006101000a81548173ffffffffffffffffffffffffffffffffffffffff021916908373ffffffffffffffffffffffffffffffffffffffff1602179055503373ffffffffffffffffffffffffffffffffffffffff168173ffffffffffffffffffffffffffffffffffffffff167f8be0079c531659141344cd1fd0a4f28419497f9722a3daafe3b4186f6b6457e060405160405180910390a350565b600660009054906101000a900473ffffffffffffffffffffffffffffffffffffffff1681565b600a81815481106107d057600080fd5b906000526020600020016000915090505481565b60008060009054906101000a900473ffffffffffffffffffffffffffffffffffffffff16905090565b60086020528060005260406000206000915090508060000160009054906101000a900460ff16908060000160019054906101000a900460ff16905082565b60035481565b60076020528060005260406000206000915054906101000a900460ff1681565b600c818154811061088157600080fd5b906000526020600020016000915090505481565b600760003373ffffffffffffffffffffffffffffffffffffffff1673ffffffffffffffffffffffffffffffffffffffff16815260200190815260200160002060009054906101000a900460ff16610921576040517f08c379a0000000000000000000000000000000000000000000000000000000008152600401610918906117a8565b60405180910390fd5b600d54811415610a715760003373ffffffffffffffffffffffffffffffffffffffff1647604051610951906117f9565b60006040518083038185875af1925050503d806000811461098e576040519150601f19603f3d011682016040523d82523d6000602084013e610993565b606091505b50509050806109ce576040517fd3c9c2e800000000000000000000000000000000000000000000000000000000815260040160405180910390fd5b33600660006101000a81548173ffffffffffffffffffffffffffffffffffffffff021916908373ffffffffffffffffffffffffffffffffffffffff160217905550600067ffffffffffffffff811115610a2a57610a296112be565b5b604051908082528060200260200182016040528015610a585781602001602082028036833780820191505090505b5060049080519060200190610a6e92919061116a565b50505b50565b600060606008600084815260200190815260200160002060000160019054906101000a900460ff16610adb576040517f08c379a0000000000000000000000000000000000000000000000000000000008152600401610ad29061185a565b60405180910390fd5b6000600860008581526020019081526020016000206040518060600160405290816000820160009054906101000a900460ff161515151581526020016000820160019054906101000a900460ff1615151515815260200160018201805480602002602001604051908101604052809291908181526020018280548015610b8057602002820191906000526020600020905b815481526020019060010190808311610b6c575b50505050508152505090508060400151600c9080519060200190610ba59291906111f4565b50600a600c600081548110610bbd57610bbc61187a565b5b9060005260206000200154610bd291906118d8565b600d81905550806000015181604001519250925050915091565b6000610bf6610fad565b600960009054906101000a900473ffffffffffffffffffffffffffffffffffffffff1673ffffffffffffffffffffffffffffffffffffffff16635d3b1d30600e54600960149054906101000a900467ffffffffffffffff16600f60049054906101000a900461ffff16600f60009054906101000a900463ffffffff16600f60069054906101000a900463ffffffff166040518663ffffffff1660e01b8152600401610ca5959493929190611981565b602060405180830381600087803b158015610cbf57600080fd5b505af1158015610cd3573d6000803e3d6000fd5b505050506040513d601f19601f82011682018060405250810190610cf791906119e9565b90506040518060600160405280600015158152602001600115158152602001600067ffffffffffffffff811115610d3157610d306112be565b5b604051908082528060200260200182016040528015610d5f5781602001602082028036833780820191505090505b508152506008600083815260200190815260200160002060008201518160000160006101000a81548160ff02191690831515021790555060208201518160000160016101000a81548160ff0219169083151502179055506040820151816001019080519060200190610dd29291906111f4565b50905050600a81908060018154018082558091505060019003906000526020600020016000909190919091505580600b819055507fcc58b13ad3eab50626c6a6300b1d139cd6ebb1688a7cced9461c2f7e762665ee81600f60069054906101000a900463ffffffff16604051610e49929190611a16565b60405180910390a190565b600d5481565b610e62610fad565b610e6b8161103d565b50565b60048181548110610e7e57600080fd5b906000526020600020016000915054906101000a900473ffffffffffffffffffffffffffffffffffffffff1681565b600b5481565b6008600083815260200190815260200160002060000160019054906101000a900460ff16610f16576040517f08c379a0000000000000000000000000000000000000000000000000000000008152600401610f0d9061185a565b60405180910390fd5b60016008600084815260200190815260200160002060000160006101000a81548160ff02191690831515021790555080600860008481526020019081526020016000206001019080519060200190610f6f9291906111f4565b507ffe2e2d779dba245964d4e3ef9b994be63856fd568bf7d3ca9e224755cb1bd54d8282604051610fa1929190611a3f565b60405180910390a15050565b60008054906101000a900473ffffffffffffffffffffffffffffffffffffffff1673ffffffffffffffffffffffffffffffffffffffff163373ffffffffffffffffffffffffffffffffffffffff161461103b576040517f08c379a000000000000000000000000000000000000000000000000000000000815260040161103290611abb565b60405180910390fd5b565b3373ffffffffffffffffffffffffffffffffffffffff168173ffffffffffffffffffffffffffffffffffffffff1614156110ac576040517f08c379a00000000000000000000000000000000000000000000000000000000081526004016110a390611b27565b60405180910390fd5b80600160006101000a81548173ffffffffffffffffffffffffffffffffffffffff021916908373ffffffffffffffffffffffffffffffffffffffff1602179055508073ffffffffffffffffffffffffffffffffffffffff1660008054906101000a900473ffffffffffffffffffffffffffffffffffffffff1673ffffffffffffffffffffffffffffffffffffffff167fed8889f560326eb138920d842192f0eb3dd22b4f139c87a2c57538e05bae127860405160405180910390a350565b8280548282559060005260206000209081019282156111e3579160200282015b828111156111e25782518260006101000a81548173ffffffffffffffffffffffffffffffffffffffff021916908373ffffffffffffffffffffffffffffffffffffffff1602179055509160200191906001019061118a565b5b5090506111f09190611241565b5090565b828054828255906000526020600020908101928215611230579160200282015b8281111561122f578251825591602001919060010190611214565b5b50905061123d9190611241565b5090565b5b8082111561125a576000816000905550600101611242565b5090565b6000604051905090565b600080fd5b600080fd5b6000819050919050565b61128581611272565b811461129057600080fd5b50565b6000813590506112a28161127c565b92915050565b600080fd5b6000601f19601f8301169050919050565b7f4e487b7100000000000000000000000000000000000000000000000000000000600052604160045260246000fd5b6112f6826112ad565b810181811067ffffffffffffffff82111715611315576113146112be565b5b80604052505050565b600061132861125e565b905061133482826112ed565b919050565b600067ffffffffffffffff821115611354576113536112be565b5b602082029050602081019050919050565b600080fd5b600061137d61137884611339565b61131e565b905080838252602082019050602084028301858111156113a05761139f611365565b5b835b818110156113c957806113b58882611293565b8452602084019350506020810190506113a2565b5050509392505050565b600082601f8301126113e8576113e76112a8565b5b81356113f884826020860161136a565b91505092915050565b6000806040838503121561141857611417611268565b5b600061142685828601611293565b925050602083013567ffffffffffffffff8111156114475761144661126d565b5b611453858286016113d3565b9150509250929050565b61146681611272565b82525050565b6000602082019050611481600083018461145d565b92915050565b600073ffffffffffffffffffffffffffffffffffffffff82169050919050565b60006114b282611487565b9050919050565b6114c2816114a7565b82525050565b60006020820190506114dd60008301846114b9565b92915050565b6000602082840312156114f9576114f8611268565b5b600061150784828501611293565b91505092915050565b60008115159050919050565b61152581611510565b82525050565b6000604082019050611540600083018561151c565b61154d602083018461151c565b9392505050565b61155d816114a7565b811461156857600080fd5b50565b60008135905061157a81611554565b92915050565b60006020828403121561159657611595611268565b5b60006115a48482850161156b565b91505092915050565b60006020820190506115c2600083018461151c565b92915050565b600081519050919050565b600082825260208201905092915050565b6000819050602082019050919050565b6115fd81611272565b82525050565b600061160f83836115f4565b60208301905092915050565b6000602082019050919050565b6000611633826115c8565b61163d81856115d3565b9350611648836115e4565b8060005b838110156116795781516116608882611603565b975061166b8361161b565b92505060018101905061164c565b5085935050505092915050565b600060408201905061169b600083018561151c565b81810360208301526116ad8184611628565b90509392505050565b60006040820190506116cb60008301856114b9565b6116d860208301846114b9565b9392505050565b600082825260208201905092915050565b7f4d7573742062652070726f706f736564206f776e657200000000000000000000600082015250565b60006117266016836116df565b9150611731826116f0565b602082019050919050565b6000602082019050818103600083015261175581611719565b9050919050565b7f506c732070617920746f20656e746572207468652067616d6500000000000000600082015250565b60006117926019836116df565b915061179d8261175c565b602082019050919050565b600060208201905081810360008301526117c181611785565b9050919050565b600081905092915050565b50565b60006117e36000836117c8565b91506117ee826117d3565b600082019050919050565b6000611804826117d6565b9150819050919050565b7f72657175657374206e6f7420666f756e64000000000000000000000000000000600082015250565b60006118446011836116df565b915061184f8261180e565b602082019050919050565b6000602082019050818103600083015261187381611837565b9050919050565b7f4e487b7100000000000000000000000000000000000000000000000000000000600052603260045260246000fd5b7f4e487b7100000000000000000000000000000000000000000000000000000000600052601260045260246000fd5b60006118e382611272565b91506118ee83611272565b9250826118fe576118fd6118a9565b5b828206905092915050565b6000819050919050565b61191c81611909565b82525050565b600067ffffffffffffffff82169050919050565b61193f81611922565b82525050565b600061ffff82169050919050565b61195c81611945565b82525050565b600063ffffffff82169050919050565b61197b81611962565b82525050565b600060a0820190506119966000830188611913565b6119a36020830187611936565b6119b06040830186611953565b6119bd6060830185611972565b6119ca6080830184611972565b9695505050505050565b6000815190506119e38161127c565b92915050565b6000602082840312156119ff576119fe611268565b5b6000611a0d848285016119d4565b91505092915050565b6000604082019050611a2b600083018561145d565b611a386020830184611972565b9392505050565b6000604082019050611a54600083018561145d565b8181036020830152611a668184611628565b90509392505050565b7f4f6e6c792063616c6c61626c65206279206f776e657200000000000000000000600082015250565b6000611aa56016836116df565b9150611ab082611a6f565b602082019050919050565b60006020820190508181036000830152611ad481611a98565b9050919050565b7f43616e6e6f74207472616e7366657220746f2073656c66000000000000000000600082015250565b6000611b116017836116df565b9150611b1c82611adb565b602082019050919050565b60006020820190508181036000830152611b4081611b04565b905091905056fea2646970667358221220e3ea5f6d01a45c5c387e004cae72c6452a634672384151e7d8a392e78e34c47c64736f6c63430008090033",
  "devdoc": {
    "kind": "dev",
    "methods": {},
    "version": 1
  },
  "userdoc": {
    "kind": "user",
    "methods": {
      "acceptOwnership()": {
        "notice": "Allows an ownership transfer to be completed by the recipient."
      },
      "owner()": {
        "notice": "Get the current owner"
      },
      "transferOwnership(address)": {
        "notice": "Allows an owner to begin transferring ownership to a new address, pending."
      }
    },
    "notice": "THIS IS AN EXAMPLE CONTRACT THAT USES HARDCODED VALUES FOR CLARITY. THIS IS AN EXAMPLE CONTRACT THAT USES UN-AUDITED CODE. DO NOT USE THIS CODE IN PRODUCTION.",
    "version": 1
  },
  "storageLayout": {
    "storage": [
      {
        "astId": 27,
        "contract": "contracts/NumberGuessingGame.sol:NumberGuessingGame",
        "label": "s_owner",
        "offset": 0,
        "slot": "0",
        "type": "t_address"
      },
      {
        "astId": 29,
        "contract": "contracts/NumberGuessingGame.sol:NumberGuessingGame",
        "label": "s_pendingOwner",
        "offset": 0,
        "slot": "1",
        "type": "t_address"
      },
      {
        "astId": 367,
        "contract": "contracts/NumberGuessingGame.sol:NumberGuessingGame",
        "label": "s_manager",
        "offset": 0,
        "slot": "2",
        "type": "t_address"
      },
      {
        "astId": 370,
        "contract": "contracts/NumberGuessingGame.sol:NumberGuessingGame",
        "label": "s_entranceFee",
        "offset": 0,
        "slot": "3",
        "type": "t_uint256"
      },
      {
        "astId": 373,
        "contract": "contracts/NumberGuessingGame.sol:NumberGuessingGame",
        "label": "players",
        "offset": 0,
        "slot": "4",
        "type": "t_array(t_address)dyn_storage"
      },
      {
        "astId": 375,
        "contract": "contracts/NumberGuessingGame.sol:NumberGuessingGame",
        "label": "correctNumber",
        "offset": 0,
        "slot": "5",
        "type": "t_uint256"
      },
      {
        "astId": 377,
        "contract": "contracts/NumberGuessingGame.sol:NumberGuessingGame",
        "label": "s_recentWinner",
        "offset": 0,
        "slot": "6",
        "type": "t_address"
      },
      {
        "astId": 381,
        "contract": "contracts/NumberGuessingGame.sol:NumberGuessingGame",
        "label": "paid",
        "offset": 0,
        "slot": "7",
        "type": "t_mapping(t_address,t_bool)"
      },
      {
        "astId": 407,
        "contract": "contracts/NumberGuessingGame.sol:NumberGuessingGame",
        "label": "s_requests",
        "offset": 0,
        "slot": "8",
        "type": "t_mapping(t_uint256,t_struct(RequestStatus)402_storage)"
      },
      {
        "astId": 410,
        "contract": "contracts/NumberGuessingGame.sol:NumberGuessingGame",
        "label": "COORDINATOR",
        "offset": 0,
        "slot": "9",
        "type": "t_contract(VRFCoordinatorV2Interface)351"
      },
      {
        "astId": 412,
        "contract": "contracts/NumberGuessingGame.sol:NumberGuessingGame",
        "label": "s_subscriptionId",
        "offset": 20,
        "slot": "9",
        "type": "t_uint64"
      },
      {
        "astId": 415,
        "contract": "contracts/NumberGuessingGame.sol:NumberGuessingGame",
        "label": "requestIds",
        "offset": 0,
        "slot": "10",
        "type": "t_array(t_uint256)dyn_storage"
      },
      {
        "astId": 417,
        "contract": "contracts/NumberGuessingGame.sol:NumberGuessingGame",
        "label": "lastRequestId",
        "offset": 0,
        "slot": "11",
        "type": "t_uint256"
      },
      {
        "astId": 420,
        "contract": "contracts/NumberGuessingGame.sol:NumberGuessingGame",
        "label": "correctNum",
        "offset": 0,
        "slot": "12",
        "type": "t_array(t_uint256)dyn_storage"
      },
      {
        "astId": 422,
        "contract": "contracts/NumberGuessingGame.sol:NumberGuessingGame",
        "label": "newNum",
        "offset": 0,
        "slot": "13",
        "type": "t_uint256"
      },
      {
        "astId": 425,
        "contract": "contracts/NumberGuessingGame.sol:NumberGuessingGame",
        "label": "keyHash",
        "offset": 0,
        "slot": "14",
        "type": "t_bytes32"
      },
      {
        "astId": 428,
        "contract": "contracts/NumberGuessingGame.sol:NumberGuessingGame",
        "label": "callbackGasLimit",
        "offset": 0,
        "slot": "15",
        "type": "t_uint32"
      },
      {
        "astId": 431,
        "contract": "contracts/NumberGuessingGame.sol:NumberGuessingGame",
        "label": "requestConfirmations",
        "offset": 4,
        "slot": "15",
        "type": "t_uint16"
      },
      {
        "astId": 434,
        "contract": "contracts/NumberGuessingGame.sol:NumberGuessingGame",
        "label": "numWords",
        "offset": 6,
        "slot": "15",
        "type": "t_uint32"
      }
    ],
    "types": {
      "t_address": {
        "encoding": "inplace",
        "label": "address",
        "numberOfBytes": "20"
      },
      "t_array(t_address)dyn_storage": {
        "base": "t_address",
        "encoding": "dynamic_array",
        "label": "address[]",
        "numberOfBytes": "32"
      },
      "t_array(t_uint256)dyn_storage": {
        "base": "t_uint256",
        "encoding": "dynamic_array",
        "label": "uint256[]",
        "numberOfBytes": "32"
      },
      "t_bool": {
        "encoding": "inplace",
        "label": "bool",
        "numberOfBytes": "1"
      },
      "t_bytes32": {
        "encoding": "inplace",
        "label": "bytes32",
        "numberOfBytes": "32"
      },
      "t_contract(VRFCoordinatorV2Interface)351": {
        "encoding": "inplace",
        "label": "contract VRFCoordinatorV2Interface",
        "numberOfBytes": "20"
      },
      "t_mapping(t_address,t_bool)": {
        "encoding": "mapping",
        "key": "t_address",
        "label": "mapping(address => bool)",
        "numberOfBytes": "32",
        "value": "t_bool"
      },
      "t_mapping(t_uint256,t_struct(RequestStatus)402_storage)": {
        "encoding": "mapping",
        "key": "t_uint256",
        "label": "mapping(uint256 => struct NumberGuessingGame.RequestStatus)",
        "numberOfBytes": "32",
        "value": "t_struct(RequestStatus)402_storage"
      },
      "t_struct(RequestStatus)402_storage": {
        "encoding": "inplace",
        "label": "struct NumberGuessingGame.RequestStatus",
        "members": [
          {
            "astId": 396,
            "contract": "contracts/NumberGuessingGame.sol:NumberGuessingGame",
            "label": "fulfilled",
            "offset": 0,
            "slot": "0",
            "type": "t_bool"
          },
          {
            "astId": 398,
            "contract": "contracts/NumberGuessingGame.sol:NumberGuessingGame",
            "label": "exists",
            "offset": 1,
            "slot": "0",
            "type": "t_bool"
          },
          {
            "astId": 401,
            "contract": "contracts/NumberGuessingGame.sol:NumberGuessingGame",
            "label": "randomWords",
            "offset": 0,
            "slot": "1",
            "type": "t_array(t_uint256)dyn_storage"
          }
        ],
        "numberOfBytes": "64"
      },
      "t_uint16": {
        "encoding": "inplace",
        "label": "uint16",
        "numberOfBytes": "2"
      },
      "t_uint256": {
        "encoding": "inplace",
        "label": "uint256",
        "numberOfBytes": "32"
      },
      "t_uint32": {
        "encoding": "inplace",
        "label": "uint32",
        "numberOfBytes": "4"
      },
      "t_uint64": {
        "encoding": "inplace",
        "label": "uint64",
        "numberOfBytes": "8"
      }
    }
  }
}